:020000040000FA
:1000000000A40400000000002E0400002E040000E4
:100010002E0400002E0400002E0400002E04000018
:100020002E0400002E0400002E0400002E04000008
:100030002E0400004C0300002E0400002E040000DB
:100040002E0400006C030000860300002E04000054
:100050002E040000CC0200002E0400002E0400003C
:100060002E0400002E0400002E0400002E040000C8
:100070002E04000018040000020400002E040000FA
:100080002E0400002E0400002E0400002E040000A8
:100090002E040000E80300002E0400002E040000DF
:1000A0002E0400002E0400002E0400002E04000088
:1000B0002E0400002E0400002E0400002E04000078
:1000C0002E0400002E0400002E0400002E04000068
:1000D0002E0400002E0400002E0400002E04000058
:1000E0002E0400002E0400002E0400002E04000048
:1000F0002E0400002E0400002E0400002E04000038
:100100002E0400002E0400002E0400002E04000027
:100110002E0400002E0400002E0400002E04000017
:100120002E0400002E0400002E0400003603000000
:100130002E0400002E0400002E0400002E040000F7
:100140002E0400002E0400002E0400002E040000E7
:100150002E0400002E0400002E0400002E040000D7
:10016000FFFFFF00FFFFFF00FFFFFF00FFFFFF009B
:10017000FFFFFF00FFFFFF00FFFFFF00FFFFFF008B
:10018000FFFFFF00FFFFFF00FFFFFF00FFFFFF007B
:10019000FFFFFF00FFFFFF00FFFFFF00FFFFFF006B
:1001A000FFFFFF00FFFFFF00FFFFFF00FFFFFF005B
:1001B000FFFFFF00FFFFFF00FFFFFF00FFFFFF004B
:1001C000FFFFFF00FFFFFF00FFFFFF00FFFFFF003B
:1001D000FFFFFF00FFFFFF00FFFFFF00FFFFFF002B
:1001E000FFFFFF00FFFFFF00FFFFFF00FFFFFF001B
:1001F000FFFFFF00FFFFFF00FFFFFF00FFFFFF000B
:10020000FFFFFF00FFFFFF002E0400002E04000090
:100210002E0400002E0400002E0400002E04000016
:100220002E0400002E0400002E0400002E04000006
:100230002E0400002E0400002E0400002E040000F6
:100240002E0400002E0400002E0400002E040000E6
:100250002E0400002E0400002E0400002E040000D6
:100260002E0400002E0400002E0400002E040000C6
:100270002E0400002E0400002E0400002E040000B6
:100280002E0400002E0400002E0400002E040000A6
:100290002E0400002E0400002E0400002E04000096
:1002A0002E0400002E0400002E0400002E04000086
:1002B0002E0400002E0400002E0400002E04000076
:1002C0002E0400002E0400002E0400002E04000066
:1002D0002E0400002E0400002E0400002E04000056
:1002E0002E0400002E0400002E0400002E04000046
:1002F0002E0400002E0400002E0400002E04000036
:100300002E0400002E0400002E0400002E04000025
:100310002E0400002E0400002E0400002E04000015
:100320002E0400002E0400002E0400002E04000005
:100330002E0400002E0400002E0400002E040000F5
:100340002E0400002E0400002E0400002E040000E5
:100350002E0400002E0400002E0400002E040000D5
:10036000FFFFFF00FFFFFF00FFFFFF00FFFFFF0099
:10037000FFFFFF00FFFFFF00FFFFFF00FFFFFF0089
:10038000FFFFFF00FFFFFF00FFFFFF00FFFFFF0079
:10039000FFFFFF00FFFFFF00FFFFFF00FFFFFF0069
:1003A000FFFFFF00FFFFFF00FFFFFF00FFFFFF0059
:1003B000FFFFFF00FFFFFF00FFFFFF00FFFFFF0049
:1003C000FFFFFF00FFFFFF00FFFFFF00FFFFFF0039
:1003D000FFFFFF00FFFFFF00FFFFFF00FFFFFF0029
:1003E000FFFFFF00FFFFFF00FFFFFF00FFFFFF0019
:1003F000FFFFFF00FFFFFF00FFFFFF00FFFFFF0009
:10040000CFA420000E7F22000E0188000000000013
:10041000000020000000E000020032000001200087
:1004200020028800140007000E0107000000E00011
:1004300003003A00A07D22000100200002003700E6
:100440000000200001002000810F70000100320038
:1004500014000700000020000000E000020032004D
:100460000000020000000000761F020000000000F3
:100470000040DA000000FE004440A900002E2000E9
:100480000000E0000300320000002000A00188000E
:100490004440A800000006008A1F78008B1F7800E7
:1004A0000000060091018800800478000000EB0045
:1004B0001A003700E284440032A0B4009905BA0063
:1004C000E284440032A0B4009906BA00E2844400F9
:1004D00032A0B4000006EB00476FDE00FD07B2005B
:1004E000636CE10003003A00EBFF07000000EB0043
:1004F0000A003700606CE10004003A00005DEB0088
:100500008B05E900FDFF3E00040037006168E10053
:10051000010032000086EB000B00070019C7BA008B
:100520001905BA000E04E00003003A000A00E000DA
:10053000E0FF3A0000000600FE07B2009E018800BE
:100540008A047800F5FF3700395DBA008B05E900B1
:100550000C003200295DBA008B05E900080032006A
:100560000C00E00003003A00E284440032A0B40032
:10057000F5FF370019DDBA008B05E900FAFF3A00F4
:100580008904E800E184440032A0B40000000600C1
:100590000000000000000000809FBE00821F780065
:1005A0000000FA008560A900101180006200600060
:1005B0000000E000010032002222A900101180009A
:1005C000640060000000E0001F0032003011800075
:1005D0000040780033E8B7001C003700301180007D
:1005E0000040780033E8B700318320009140780064
:1005F000F0C2B30080CF50000500360031832000E8
:1006000091407800F0C5B30080CF50000300360061
:1006100033C8BF00ED4F50000C003A0032C8BF0095
:100620000080FB0031832000914078000141780078
:10063000418320008270780032C8BF000040E8008B
:1006400032E8B70001003700000000001011800000
:10065000610060000000E000E0FF3A000080FA0066
:100660004F0178004F00BE0000400600801F780058
:100670000000FA0010118000620060000000E0003D
:10068000010032002222A9008C20A9000080FA007B
:100690004F00780000400600801F78003400F8000A
:1006A00000002000A00188000000FA008460A9007A
:1006B000C04080000000E800C0408800D0408000BA
:1006C0000000E800D04088000080FA003400F90003
:1006D0004F00780000400600801F78003400F800CA
:1006E00000002000A00188000000FA0084E0A900BA
:1006F000904080000000E800904088000080FA00F0
:100700003400F9004F00780000400600809FBE00D2
:100710003400F80000002000A00188000000FA006A
:100720008500A900E14080000002200000806000F8
:100730000000E00005003A00E140800000042000D5
:10074000008060000000E0001D003200E1408000F9
:1007500000022000008060000000E000070032007E
:1007600030418000500D8800500D8000000D880041
:10077000000D8000B00C880002003700304180007E
:10078000500D880030418000E10F500002003A0017
:1007900010002000404188003141800020062000E8
:1007A000808F500002003A000080EB00404188003A
:1007B000314180004041800000804000304188008D
:1007C0000080FA003400F9004F00BE00004006002F
:1007D000801F78003400F80000002000A00188008D
:1007E0000000FA008760A900B04080000000E80027
:1007F000B04088000080FA003400F9004F00780013
:10080000004006003400F800881F7800080020002F
:10081000A80188004F0478000000FA008680A90033
:100820001C48A8000080FA003400F90000400600CF
:100830003400F800881F780008002000A801880014
:100840004F0478000000FA008660A9001C68A80028
:100850000080FA003400F900004006000040DA0091
:100860000000FE000000050003F0A200889FBE000B
:100870008A9FBE008C1F7800860007008D00330021
:100880006450E1004F0032006420E1005200320069
:1008900003826C0007003B000905D0000306D0006E
:1008A000820F54000C065D00020039000200320085
:1008B00089017800030678008582550004003D0018
:1008C0000003FD008103FD008502EA008B854200E4
:1008D000840F720002003B0060001000E0801800EE
:1008E0006011B8000005EB007A28E1000A00390029
:1008F00006007800C75DDD00F707B200878075004D
:100900002D003700828171000A01780061056000C6
:100910008180D1000080D3008502E900F9FF3B000F
:10092000060440008784480002003B006004140075
:10093000E0841C000988A300070032008A8171004E
:1009400082817100610164008904D1000884D300B0
:100950008B05E800170037000978A30013003A0060
:100960000B00E000130034008B05E900080444008C
:1009700089844C000A4474000978A3000D003A00F1
:100980000B00E000070034008B05E9000804440078
:1009900089844C0001003A000B0020000978A30074
:1009A000F7FF32000001EB00020037008281710086
:1009B0000A017800110007000CF0A70001F0A00068
:1009C000450037006420E10002003A00838F6C008C
:1009D000450033000801BE000200BE003E003700A3
:1009E0001400200077003700F4FF2F007500370057
:1009F0004F89DE00820178008D00370081002000E1
:100A0000618055000B003D000B00200061FE2F00AF
:100A10000100E1001D003400828171006101640069
:100A20008904D1000884D3000000E800FAFF3A00EE
:100A3000710020006100640003007000020060008B
:100A40000900320061044400E0844C000988A500DC
:100A5000050032008B05E8006808E10002003A005A
:100A60008904D1000884D300F20F20000258E1006D
:100A700005003D00C75DDD00F907B2008980750003
:100A800008007800000006000BF827008B007800B3
:100A9000000005000004BE00A40007000003BE0023
:100AA0000405BE000200BE00A0000700844F7500D0
:100AB000000006000200BE006450E10005003600A0
:100AC0006420E100020036000968A30001003A003A
:100AD0000800BE000160A0004F0678004F05BE0070
:100AE0004F04BE0000000600F0FF2F00F1FF2700BA
:100AF000F9FF3700889FBE008A9FBE008C1F7800D8
:100B0000E4FF0700EBFF330003866C006450E10054
:100B1000240032006420E100270032006150E1002F
:100B2000220032006120E100210032008B8542006A
:100B3000EB07B1000134B800003AB80008044200E5
:100B400089844A00013AB8000030B800888040002B
:100B500009014A0004003300000040008180480081
:100B6000020149008B05E900C909DD00830170001D
:100B70000100320013002000C814DE004814DD001C
:100B80004709DE001200B200C808DE0008847000C9
:100B90009AFF070001F0A1000CF0A70001F0A000EF
:100BA000CDFF37006120E100CFFF32000801BE0019
:100BB0000200BE00F7FF37006150E100FCFF3A0081
:100BC000C9FF3700889FBE008A9FBE00841F78003F
:100BD000B0FF07004F00780011003300F0FF2F0036
:100BE000838F6C0006003B00040565000A00A70027
:100BF0000800370009F0A6001000200008003700A8
:100C0000820F5400838F5C00030039001000200025
:100C100001003E000000200009F0A7000000EA00EB
:100C20004F05BE004F04BE000000E00000000600BB
:100C3000881F7800030478000300E00007003D00EF
:100C400060001000E080180060011900E0811900C8
:100C500002003B0001F02D000300370004000700F4
:100C600008F0A70001F0A0004F0478000000060083
:100C7000889FBE008A9FBE0000827000040271003F
:100C800004827100260032000004BE000200BE0093
:100C90006011B8006B092000950220000182CF008E
:100CA0000A0039000541B1000082CF000700390079
:100CB0000541B1000982CF00040039000541B100AF
:100CC0000882CF00010039000541B1000542520001
:100CD000120032000A003B00828171006101640051
:100CE0008100D1000080D3008984D3000884D30020
:100CF0008B05E8000442E800F7FF3A0007003700E0
:100D00000804440089844C000000480081804800A9
:100D10008B05E9000442E900F9FF3A0037FF0700BC
:100D20004F05BE004F04BE0000000600C70ADE00EB
:100D3000F107B200F50FB20008003200E1CF420027
:100D4000020032000170A00024000500810F700035
:100D5000010032000408050044000500810F700006
:100D600002003A00140005008502E900000040007E
:100D700081C04800FCFF3B000170A000240005007A
:100D8000020037000204E0000B003200810178000D
:100D90000002780030417800B14F5100F9FF320075
:100DA0001000200014427800934F520003003100DD
:100DB0000080EB00000006000000EB0000000600D1
:100DC0000C003700B0417800B1CF5100060032006E
:100DD000100020009542780094CF52000B003100A3
:100DE0000080EB00000006000304E0000600320073
:100DF0000201E90001027800800278000200E000B0
:100E0000F0FF3A00000005000000EB0000000600C3
:100E1000881F780002047800080178006203070048
:100E2000080040004F047800000006000000FA00AF
:100E3000881F780000047800EA8157003FB99700C6
:100E40008800780080702000070007000000E000A4
:100E5000020035008040EB00017478004F047800F8
:100E60000080FA00000006006200FA00889FBE00C1
:100E70008A1F780000057800810478000204780059
:100E80008300780080F92F000F0040003F04070026
:100E90009A979F00A9979F000000EB00B09F9F00CA
:100EA0001885FB008A04FB000A05EA004F55DE00A6
:100EB00050022000808F54000D003200E10F5500D9
:100EC0000B003A000A017800880078002F90970004
:100ED0009F91970003000100A0979F000000E00091
:100EE0008E0032003F9897000000E800B09F9F00FE
:100EF0000A04440050022000808F54000400320095
:100F00000900E000E6FF3A003F98970084003700B0
:100F10000000EB00909F9F00809F9F00F0979F0034
:100F2000E0979F00D0979F00C0979F000700370071
:100F300001A32000010050000000400041A2200059
:100F400061007800DF98970001007000D09F9F003B
:100F50008804780009047800384578008A00FB008E
:100F600000A32000170307000000E000F0FF3A0094
:100F7000A1C2B300814F55000E003A00CF88970000
:100F80000180E900C08F9F0010007800C09F9F0083
:100F90000000E00005003D000000EA00C09F9F0047
:100FA0005F9897000020A000D09F9F000904E800F0
:100FB0000F003700C09F9F000000EB0005003700C6
:100FC000F2FF2700820F5000020032006A01B900D0
:100FD000028040000904780088047800B900FB0012
:100FE0000103B100E98F5000F5FF3600C09F9F005C
:100FF000E0C2B300984F1000020032000080EB0006
:1010000019003700A0C2B300D84F100007003A0003
:10101000CF8897000180E900C08F9F001000780002
:10102000A09F9F000804E800100037000000EB00BC
:10103000A09F9F008800780005003700F3FF27007D
:10104000830F5000020032006A02B9000400410020
:1010500001047800880078003101FB000203B10030
:10106000E90F5100F5FF3600A09F9F0098447800DB
:101070008900FB00C0A12000D20207000000E000B0
:10108000020032000804E800010037008044EB0051
:10109000C97F9F0080C6B30080CF540004003A008F
:1010A00098CF14000A003A0066405000060037004E
:1010B000C0C6B30080CF540005003A0098CF14009A
:1010C00003003A0065404000C07F9F000804E8002C
:1010D0001801FB00E3FB2F008F81410081F92F00F5
:1010E0008F804000A0F92F000F0040001000070083
:1010F0000000E00009003A00E1FB2F008F80400073
:10110000A0F92F000F004000E40207000000E000FB
:10111000020035000804E80061FF37000080EB00A2
:101120004F0578004F04BE000080FA000000060062
:10113000889FBE008A1F78000004780082447800EF
:101140000305780070C4B30080CF54000A003C004F
:1011500000C0E90080CF54000F003D0050C2B30032
:1011600080CF5400350032007C40400080CF5400D6
:1011700035003A000800370010C6B30080CF540095
:101180000500320030003500B0C9B30000C0440093
:10119000E24F50002C003E0028619000C0C4B30014
:1011A000804F510006003A0011017800680051009C
:1011B000800878005001BE004000BE0005003700E6
:1011C0001101780064005100800878001000BE0012
:1011D00074040700009CBE000294BE00B80090009A
:1011E000780090000100E00002003D00D1C2B30091
:1011F00008003700881090000118A3000200320098
:10120000B1C2B300030037000108A300040032009C
:1012100001C2B300017578000000E8007004980076
:1012200078009000000545006A0498008900FB00E2
:1012300008007800100007000B00370078009000CD
:101240000975780006003700780090000005450019
:101250000904E00001003A0059C2B300094D7800CA
:101260000000E800700498000000EB004F057800D3
:101270004F04BE00000006002F04B000889FBE008F
:101280008A9FBE008C9FBE008E1F780000077800EA
:1012900081F79F003E04BE002E05BE005E08900050
:1012A0000000E00002003D0060002000500F9800A8
:1012B0008E00780020FB2F000F0040004D02070039
:1012C000E20F50000A003A0030002000100F980092
:1012D000B1C9B3000FF0970081404000809C20000E
:1012E000E1CF50000D003E00409C20000B00370075
:1012F0000000E0000F00340030002000100F9800C4
:10130000B1C9B3000FF1970081404100009D20005A
:10131000E1CF500001003E00C09C2000EE00900094
:10132000B0487800B068780010407800904098008D
:10133000F30037000000E00005003A0022FB2F0018
:101340000F014100001978008001EB00E700370031
:101350006022B8006033B8000800BE000A01BE0079
:10136000580307000000E00001003D000BF0A20060
:10137000705927009F9897000088B900026A2800DA
:1013800013002000B3030700640650009C9F9F00D9
:1013900013003B0063061600C0FF2F000006660026
:1013A0008C01EA00939F9F004D9D20000800BE0025
:1013B0000A01BE00070037000C08A300030032003A
:1013C0003D02BE002D03BE00440407000C86D10080
:1013D000E88646000C00E000F7FF3C0018003700EC
:1013E0000C00E00018003200C0FF2F00000666006D
:1013F0009C9F9F004D9D20006000B80002002000CF
:1014000003FF2300070037000C08A300030032008D
:101410003D02BE002D03BE00300407000C86D10043
:10142000E88646000C00E000F7FF3C000002BE002A
:101430000203BE000800BE000A01BE002B03070025
:101440000004BE000205BE00DE08900060C6B300C6
:101450000FF29700804F520004003200600020001D
:1014600062C4B300824F520002003A009F9A970074
:101470006A80420081004000F1B79F0001037800BC
:10148000F30F53000200340037012000F7B79F002C
:1014900000C3B300C0779F0056FB2F000F0343002B
:1014A0000E007800A0B79F00060778003D003700C7
:1014B0000800BE000A01BE00D90307000006BE00F6
:1014C0007FB1970068015100F2B79F004240A90028
:1014D0000C003400FE0307000002BE000203BE0041
:1014E0000800BE000A01BE00710407006022B800B7
:1014F00046782D0077192400F80307000004BE0089
:101500000205BE00E80047008E0020000802BE0071
:101510000A03BE00B4B79F00C5B79F00D6B79F00AF
:10152000E7B79F000C01BE00010478000C003700F3
:10153000A400200005002000C0FD2F000F00400087
:10154000840107006FA89700FFA897000FB19700CC
:101550009FB1970005C3B300056441000001BE00C0
:10156000E00F5100E08F5900030034000E07E9003E
:10157000E10F4700EEFF3A00880078003FB4970083
:10158000CFB497005FB59700EFB597000200370022
:1015900000C3B300806078000E07E900FCFF3B0049
:1015A000688740007FB397000600E0000700340022
:1015B0006022B8006033B8000800BE000A01BE0017
:1015C000C50207000000E000B9FF3C000E037800F0
:1015D0002FB7970051FB2F008F804000010353006D
:1015E0009F9B970067804300909F9F0002003700F9
:1015F0000603E9000000E90001017800820078009C
:1016000003C3B300B1CF1100F9FF3200909F9F00D8
:10161000DE09900061C6B3000FF29700814F5200BF
:101620000300320061C4B300814F520002003A004F
:101630000000E8000A0037001000200051C6B30087
:101640008FF2970081CF52000500320005407800EC
:1016500050C4B2000080FB000000E9004F00DE0033
:1016600083014000868F510001003400860178001C
:101670000300E0001D00350000C3B300868F510059
:1016800006003D0062C279006940400041C3B300DA
:10169000814F520001003C00694050008300E90086
:1016A0008100410001003700840178000302E90055
:1016B00001037800A142780080CF5200FAFF320087
:1016C00091C3B300814F500001003A00054BE80080
:1016D0000400E00005003D000201E9008301E8008C
:1016E0001F9B97000603E800969F9F008FF39700CB
:1016F0008700FB001F9A97000E0078000600070085
:101700004F0778004F06BE004F05BE004F04BE00D5
:101710002F04B10000000600F0874700889FBE003C
:101720008A9FBE008C9FBE008E1F78000004780048
:10173000814478000205BE00040678000B00E0003A
:1017400002003C001B002000AAA4200060C6B300D9
:1017500080CF54000E00320060C4B30080CF54002C
:101760000B00320070C6B30080CF5400030032007B
:1017700070C4B30080CF540081003A00E40F4600EB
:101780007F00350058089000800F56007C003D0017
:101790000C06E80060C6B30080CF54001000320091
:1017A00060C4B30080CF54000D00320008109000D8
:1017B0000038A30004003A0058089000808F5500BC
:1017C00001003D005B0C9800580890000C00500090
:1017D000500C980002003B000000EB00500C9800F9
:1017E00018089000E80090000C00E00026003C0083
:1017F00002C3B300827078000000E800100C98006B
:10180000D80890000100E00003003C008810900020
:101810000138A30005003200E8009000E2C2B300E6
:10182000827078000000E800100C980058089000C2
:101830008C00EA00810F500001003D000006EA0024
:101840008C00EA00210C9800000646005C0C980011
:101850008B0F5600010034000B0678003C0C9800FA
:10186000E800900018089000008040000C0178000B
:101870008A007800CC000700580890000C06500041
:101880004C0C9800900037008C8F550018003D00DC
:10189000008040000B0178008A007800C200070039
:1018A0001808900000804500100C98008B05560029
:1018B0002B0C9800D80890000100E00003003C00C9
:1018C000881090000138A30006003200E800900064
:1018D000E2C2B30082707800380890000000E8008F
:1018E000300C980058089000400C980076003700A3
:1018F000008040000C0178008A007800AA000700F0
:101900001808900000004600100C98008C855500C7
:10191000D80890000100E00003003C00881090000F
:101920000138A30005003200E8009000E2C2B300D5
:10193000827078000000E800100C980058089000B1
:10194000808F55000100340080057800E800900089
:1019500018089000008040008C0045000B017800C2
:1019600091000700180890000B004000100C980030
:10197000580890008B0550002B0C9800520037003F
:1019800018089000E80090009A7078000000E800C5
:10199000100C9800D80890000100E00003003C0003
:1019A000881090000138A30005003200E800900084
:1019B000E2C2B300827078000000E800100C9800CA
:1019C000580890000000E000100034008B05E9008A
:1019D000808F55000100340080057800E8009000F9
:1019E00018089000008040008A00E8000B01780091
:1019F0006D000700180890000B004000100C9800C4
:101A0000580890008B0550002B0C9800E8009000BF
:101A10001808900000804000095878000007E8008E
:101A20000C00E00004003500B1C2B30001487800AA
:101A30008E04780004003700D1C2B300014878005A
:101A40008E0478000C06EA007D8557008006EB00C6
:101A500009003700A20020008C0078007280570037
:101A6000310007007FB097008FB89700016D7800B4
:101A7000000678008D06E8000C00E000F5FF3C0051
:101A80000D00E00009003A008E04780000C3B300A6
:101A9000805C7800050037008D06E900FC80570067
:101AA00061C07E0002C3B300825C40000D00E00014
:101AB000F9FF3C00E800900018089000008040000A
:101AC00080845400390C9800081090007400600065
:101AD000F00F50000E003A00980890007800900037
:101AE00000804000A808900001004000B808900065
:101AF00001004000C808900001004000F808900074
:101B0000810F500002003D0000805000000C980042
:101B10004F0778004F06BE004F05BE004F04BE00C1
:101B20000F01B10000000600800278000103780078
:101B3000110009000203D80080017800830A7800B0
:101B40000299B90002015300920298000500780042
:101B500000000600881F78008A9FBE008C9FBE0090
:101B6000000478000205BE000406BE000401BE00A9
:101B70000A00BE00B7010700008CBE000C01BE00C9
:101B8000DD0207000005550081855D002A049800EC
:101B90003B049800080078004F06BE004F05BE00C9
:101BA0004F04780000000600800178000200370032
:101BB000B15978000201E9000200E000FCFF3A00A0
:101BC00000000600020037000304E00006003200B7
:101BD0000001780002007800B041780081CF510008
:101BE000F9FF3A00010037000001EB000200780025
:101BF00000000600889FBE0000047800E6844000D4
:101C00001900D0004500DE00F27F2000820F500056
:101C100010003A00000CEB00990478006F8164001A
:101C2000200020001B003A00210190000200E0008B
:101C300018003A00110190000200E00015003A007F
:101C4000100020001100E0001200320020002000EF
:101C5000100037000000E00004003A0001007800A6
:101C6000CC0007000000E00008003C00F200280063
:101C70001901610001FE2300810C710021C02F00B9
:101C8000010C40000080EB0002003700000CEB006C
:101C90000000EB004F04BE00000006000400FA0044
:101CA000889FBE008A9FBE008C1F780000047800C9
:101CB00001067800F80D90007800900080855500AE
:101CC0000808900080855500180890008085550010
:101CD00028089000808555003808900080855500C0
:101CE00048089000808555000002220090BF9F00A8
:101CF00000032300A0BF9F00081090000028A3004D
:101D000015003A000B00E000130034000B057800CA
:101D10008A047800E20F55000100360029002000F7
:101D2000C801900009017800EE805700580090002B
:101D300003000100500498000000E0008C00320015
:101D40006808900009004000600C980009055500E3
:101D50004240A900EEFF3C00780190000200E00044
:101D60000C003400C80190008C00780058009000EE
:101D700003000100500498008080EB000000E000A8
:101D80007C003200E808900078009000008040005D
:101D9000600C9800880C90000900E00011003400ED
:101DA00009057800E28F5400010036002A00200067
:101DB000C80190000A017800EC805700580090009C
:101DC00003000100500498000000E00068003200A9
:101DD000680890000A004000600C98008A84540053
:101DE000EDFF3700180990000200E0000C003400FD
:101DF000C8019000E8009000580090000300010026
:101E0000500498008080EB000000E0005900320090
:101E1000E80890001808900000804000600C9800CE
:101E2000A80C90000900E0001100340009057800BA
:101E3000E28F5400010036002A002000C801900003
:101E40000A017800EC805700580090000300010060
:101E5000500498000000E00045003200680890003F
:101E60000A004000600C98008A845400EDFF37009F
:101E7000380990000200E0000E003400E8009000F5
:101E80001808900080804000C80190005800900021
:101E900003000100500498008080EB000000E00087
:101EA00034003200E80890003808900000804000BC
:101EB000600C9800C80C90000900E000110034008C
:101EC00009057800E28F5400010036002A00200046
:101ED000C80190000A017800EC805700580090007B
:101EE00003000100500498000000E00020003200D0
:101EF000680890000A004000600C98008A84540032
:101F0000EDFF3700081090008000EB000028A300D0
:101F1000180032000B00E000160034008B0478003B
:101F200009057800E28F5400010036002A002000E5
:101F3000C80190000A017800EE8057005800900018
:101F400003000100500498000000E0000800320087
:101F5000680890000A004000600C98008A845400D1
:101F60004240A900EEFF3C008000EB00010037007A
:101F70008080EB00010078004F0678004F05BE001E
:101F80004F04BE000080FA0000000600010878003F
:101F900000000600E600400011017800050028005E
:101FA000850261006F016100820878000200320042
:101FB0001200200011003700A00190001200200044
:101FC0000300E0000D003A00900190000300E000E3
:101FD0000A003A001000E00008003A00360037001E
:101FE000640340009608780080017800530B780065
:101FF00090097800040878007001510011027800FF
:102000000400E000F6FF32001300370064024000D5
:10201000140378004F33DE0083814100830873008E
:1020200080017800D3037800CF3BDE0014037800F2
:1020300006034300068A730013027800040242007C
:10204000100378004F33DE0086097200900178009B
:10205000038841000201E90091017800EF8F5100EF
:10206000EAFF360010003700800178005303780043
:102070004F33DD001002D1000408730064024000F9
:1020800094037800CF3BDD001303D10086897300F1
:10209000110378004F33DD009401D100030A73006F
:1020A0009108D1000201E80091017800FF8F5100F2
:1020B000EDFF3E00EF886100918872000200780019
:1020C000000006008F1FD1000E0207008F87E90075
:1020D0000000E00000000600809FEB0009020700FE
:1020E0008F87E9000000E000000006002800FA00E9
:1020F000889FBE008A9FBE008C9FBE0003866B0037
:102100008F0007006400E100440032006408E10031
:102110004A0032006100E100460032006108E1003F
:1021200049003200EC0647006000B8003D02BE00E6
:102130003D03BE00F48657006011B8003D04BE00A8
:102140003D05BE007D0320000B0037000000A0000D
:102150008D06E900130032000402420085824A0025
:1021600006034B0087834B0000004000818048003D
:1021700002014900838149000802520089825A0005
:102180000A035B008B835B00F0FF3B000802420008
:1021900089824A000A034B008B834B008D06E900BD
:1021A000EDFF3A008482720086827200F707B20067
:1021B0008782720001003200150020001E0490008A
:1021C0003E0B900006035400E63FB0000368A300F6
:1021D000070032000000A7000500A0008301D10025
:1021E0000281D3008180D3000080D3000603E80081
:1021F0008301D1000281D3008180D3000080D3000D
:102200000002EB000482D2002100070003F0A100CD
:102210000CF0A70003F0A0005D0037006402470047
:102220006408E100570032003400BE003401BE00F3
:10223000F6FF37006108E100520032006011B8007B
:102240006000B800F1FF370003FF27000200200004
:10225000FBFF3700839F68000100E00002003D00A3
:1022600060001000E08018000300E00002003D0064
:1022700060011100E08119000F0107004F00E0002C
:1022800002003B0060001000E08018000000060023
:102290001800200057002000080453000D003D00E6
:1022A0000600200097FC2F000740E1001E003400CC
:1022B00084827200610260008301D1000281D30038
:1022C0008180D3000080D3000804E800F8FF3A00C2
:1022D00047002000610460000504740004046400E9
:1022E0000D00320061004000E080480060014900BC
:1022F000E081490003B8A500070032000603E800AA
:102300006538E10004003A008301D1000281D30066
:102310008180D3000080D300F87F20000830E100E6
:1023200003003500080378006000B8006011B800B1
:102330004433DD00F300B2008301730000000600A7
:10234000680447000294BE000094BE00FC044700ED
:102350008694BE008494BE0009007800B201070094
:1023600008007800B001070099007800814F7000E4
:102370000B003B000800BE008B0107004F00B100BE
:1023800003003700F3FF2700F2FF2F006110B900B0
:102390004F06BE004F05BE004F04BE000080FA008D
:1023A000000006008103780060FA07000001BE000B
:1023B0006000B8000478A30013003A006220E10036
:1023C00015003E000D0039008301D1000281D300C9
:1023D0008180D3008301D1000281D3008180D300AA
:1023E0008301D1000281D3008180D3000538B00081
:1023F000C42ADD00F300B2008381720007F0A70059
:1024000003F0A00000000600F3FF2700F2FF2F00FA
:102410006110B900FBFF370003FF2700F7FF37000B
:102420001400FA00889FBE008A9FBE008C9FBE00E9
:102430000004BE000205BE00680047000A90BE000E
:102440000890BE00780107000070A7000BF0A10003
:10245000304320009E02900080825200B0FE2F0088
:102460000028E10011003D00B0FC2F000028E10031
:10247000150034001E0990008E0890007E00900028
:102480000501B0000201D1008180D3000080D3009B
:102490008502E800FBFF3A000B00E000BCFF3B00B8
:1024A00060001000E0801800B9FF3700F0FF2F0037
:1024B000F1FF27000B00E000B5FF3B000100280002
:1024C00000002000B2FF37006000B800B0FF370006
:1024D0004F89DE00820178007A0137002800FA0077
:1024E000889FBE008A9FBE008C9FBE0003866B0043
:1024F00093FF07000028A30064003A000128A3000E
:1025000067003A000008A30062003A000108A30037
:1025100065003A001E009000BE0890008106400051
:10252000ED3FB100F4805700EE019000111AB800A1
:102530008E099000311BB8009E099000311CB80034
:10254000511DB800F485570046000700FE019000B9
:102550003A0007008B85E8003E0007008E099000D6
:1025600040000700EE019000340007008B85E80072
:10257000380007008E099000400007009E09900077
:102580001B18B800890440000A854800FE0190002D
:10259000340007008B85E80038000700EE0190004A
:1025A000300007008E0990001B18B8008904400015
:1025B0000A8548000A98A30008003A000402420075
:1025C00085824A0006034B0087834B0008044C00B9
:1025D00089844C000A054D008D06E9008482720052
:1025E000850273004C3ADD00850272000100320062
:1025F00015002000443ADE001400B2004538DE0029
:10260000CB45DD000B007000C540DE00CB4DDD008A
:102610008B8070004549DE00CB55DD000B01710059
:10262000C551DE000D03780019FF070003F0A1007B
:102630000CF0A70003F0A00055FF37001B18B800EE
:102640008502400006834800E0834B0060044C0094
:10265000070037001B18B8000603400087834800B6
:10266000FAFF37001B18B8008703400008844800B1
:10267000E0844C0060054D00000006001B18B80007
:102680000804400089844800FAFF37000108A300CD
:102690003CFF3A005800BE005801BE00E3FF37007F
:1026A0000008A30037FF3A0009047800F9FF37005B
:1026B00007F0A200160037006022B80006022000D2
:1026C0000000D0008180D2000482D2008582D20036
:1026D0000000A0000202520083825A000300310071
:1026E0000202420083824A000000A1000603E900C2
:1026F000F3FF3A0000000600020AB900001BB9000F
:102700000200B80081004200810043000000060082
:102710002800FA00889FBE008A9FBE008C9FBE00E2
:1027200007067800878669000C003B0003047800E8
:102730008704780008F0A10009F0A100840F500080
:10274000858F5800860F5900890F5C000300330005
:102750000CF0A20001003A000CF0A100F8FE070006
:102760006400E1005F003200780147006408E10086
:10277000610032006C014700748557003200BE00D2
:102780001201BE003A04BE001A05BE001E039000EE
:10279000BE0A90008503530006003D000004FD00C2
:1027A0008104FD000205FD008305FD008703EA00AA
:1027B000050378000DF8A300040032006004140043
:1027C000E0841C0060051D00E0851D006022B8004B
:1027D0007D0320000D38E1008006EB000B0039007E
:1027E0004433DD00F300B200830173003900370089
:1027F000848272000D027800E10664008B85D100AE
:102800000A85D3008984D3000884D3008703E900B4
:10281000F7FF3B0008004000898048000A0149009A
:102820008B81490004003B0060001000E08018002C
:1028300060011900E08119000358A300090032006B
:102840008D82720084827200610260008301D10077
:102850000281D3008180D3000080D3000603E8000A
:102860001B0037000348A30017003A000600E000F1
:10287000170034000603E9000D00A3000000480023
:102880008180480002014900838149000348A30078
:102890000F003A000600E000090034000603E900DA
:1028A0000000400081804800020149008381490006
:1028B00001003A000003EB000348A300F5FF3200DB
:1028C0006022B800020037008482720061826600D4
:1028D0006FFE070003F0A1000CF0A70003F0A000BA
:1028E000ABFE3700640147006408E10002003A00D3
:1028F0000DF8A300A3FE3A003200BE001201BE0094
:10290000A3FE3700889FBE008A9FBE008C9FBE003A
:102910000404BE000605BE00809FBE00829FBE006C
:102920002F000700040678000800BE000A01BE0060
:102930002B000700840678004F03BE004F02BE0044
:102940008D4F76007FB0970013003300F0FF2F000B
:102950008B8F6B0006003B000D0666000C00A70085
:102960000A00370007F0A600100020000A00370018
:10297000880F5200898F5A008A0F5B008B8F5B0093
:10298000030039001000200001003E00000020007C
:1029900007F0A7000000EA004F06BE004F05BE008A
:1029A0004F04BE0000000600E48240001078A3003F
:1029B00007003200640240001178A3003400BE001A
:1029C0001401BE00040032000330A700000006001E
:1029D0003500BE001501BE000330A0000000060057
:1029E00005FF270005826100070032000428E1008E
:1029F00001003200240005000600070001003A0033
:102A0000440005000408050002000700F9FF3A0031
:102A1000140005006F826100810270008502710060
:102A20008502720000000600800078005002BE009F
:102A30005003BE004439DE00F700B200F37F2000EF
:102A400003016100090032000218E10016003A009B
:102A500085017200830173008381730000082000E8
:102A600015003A0040002000130037008501720075
:102A7000830173008381730005003A0004A8BE003F
:102A800006A8BE00100020000B0037000201E9007C
:102A90000402420085824A0006034B0087834B00F4
:102AA0000748A300F9FF32000740A00004A8BE00B9
:102AB00006A8BE0020002000800098009200980028
:102AC00000000600881F7800030478000300E0007F
:102AD00007003D0060001000E08018006001190050
:102AE000E081190002003B0001F02D0003003700D7
:102AF0000400070008F0A70003F0A0004F047800CE
:102B000000000600889FBE00008270000402710071
:102B1000048271002400320036432000C5002000EA
:102B20008383CF000A0039000541B1008283CF00C2
:102B3000070039000541B1008183CF00040039004E
:102B40000541B1008083CF00010039000541B1008B
:102B500085C353006022B800120032000A003B0017
:102B600084827200610260008301D1000281D3007F
:102B70008180D3000080D3000603E8008743E8008B
:102B8000F7FF3A000700370000004000818048004E
:102B900002014900838149000603E9008743E900F7
:102BA000F9FF3A00BAFD07004F04BE00000006001E
:102BB000544500004D50000000540000454D0000F9
:102BC00050200000253400002E310000660D00006A
:102BD00000500000494E0000315F00004F4E0000E1
:102BE00000500000494E0000315F00004F460000D9
:102BF00046000000504900004E3200005F4F0000C8
:102C00004E000000504900004E3200005F4F0000AF
:102C10004646000000500000494E0000335F0000AF
:102C20004F4E000000500000494E0000335F00008E
:102C30004F4600004600000050480000455200008A
:102C40005F4F00004E000000504800004552000059
:102C50005F4F000046460000005300005441000052
:102C60005445000000480000454100005445000064
:102C7000525F00004F4E0000004800004541000038
:102C800054450000525F00004F460000460000001F
:102C90004C49000047480000545F00004F4E0000C0
:102CA000004C000049470000485400005F4F0000FE
:102CB00046460000004C0000494700004854000010
:102CC0005F500000574D00005F4F00004E000000B5
:102CD0004C49000047480000545F00005057000076
:102CE0004D5F00004F4600004600000054520000B7
:102CF000494700005F4F00004E00000054520000A2
:102D0000494700005F4F00004646000000520000A7
:102D1000454400000047000052450000454E0000B9
:102D2000004200004C4900004E4B000000540000DF
:102D30004C5F00004F46000046000000535000006A
:102D4000494E0000313D0000005300005049000092
:102D50004E3200003D00000053500000494E00007C
:102D6000333D000000500000494E0000345F000079
:102D7000454E000000500000494E0000345F000046
:102D80004449000053000000504900004E35000047
:102D90005F4500004E000000504900004E35000025
:102DA0005F4400004953000000500000494E0000FD
:102DB000365F0000454E000000500000494E000004
:102DC000365F0000444900005300000044560000F4
:102DD0005F4500004E000000445600005F440000C4
:102DE00049530000004100005F52000053540000AE
:102DF00000570000445400005F4F00004E000000E8
:102E000057440000545F00004F4600004600000099
:102E100057440000545F000052530000540000006B
:102E2000524500005345000054000000355F00008B
:102E30004F4E0000003500005F4F00004646000086
:102E400000320000345F00004F4E000000320000EE
:102E5000345F00004F460000460000004657000067
:102E60005550000000420000454500005031000070
:102E700030300000004200004545000050320000A4
:102E800030300000004100004C410000524D000075
:102E900020000000504900004E34000020000000D7
:102EA000504900004E35000020000000504900004D
:102EB0004E3600002000000048450000415400004C
:102EC00045520000204500004E410000424C0000E9
:102ED000454400000D00000048450000415400003A
:102EE00045520000204400004953000041420000C8
:102EF0004C450000440D0000005000004845000013
:102F000052200000454E0000414200004C450000A8
:102F1000440D000000500000484500005220000011
:102F20004449000053410000424C00004544000069
:102F30000D0000005645000052200000322E000017
:102F4000333500000D0000004841000052440000ED
:102F500052530000542000000000000056450000BD
:102F600052200000322E0000333500000D0000001A
:102F70000D0A0000004900006E6900007420000086
:102F80007374000061740000652000004F4B000066
:102F90000D0A0000004900006E6900007420000066
:102FA0007374000061740000652000004552000049
:102FB000524F0000520D00000A000000504900006E
:102FC0004E3100002B520000656100006479000062
:102FD000204F00004B0D00000A0000005049000087
:102FE0004E3100002B520000656100006479000042
:102FF00020450000525200004F5200000D0A000010
:1030000000500000494E0000322B0000496E0000C5
:103010002F6F000075740000204F00004B0D000062
:103020000A000000504900004E3200002B49000009
:103030006E2F00004F750000742000004552000004
:10304000524F0000520D00000A00000050490000DD
:103050004E3300002B45000052520000204F00006C
:103060004B0D00000A000000504900004E330000E4
:103070002B45000052520000204500005252000033
:103080004F5200000D0A000000500000686500006B
:10309000722000003556000020440000432000004C
:1030A0004F4B00000D0A0000005000006865000052
:1030B000722000003556000020440000432000002C
:1030C00045520000524F0000520D00000A0000005F
:1030D000445300003138000053320000302000001B
:1030E00045520000524F0000520D00000A0000003F
:1030F00044530000313800005332000030200000FB
:103100004F4B00000D0A00000054000065730000E2
:103110007420000050410000535300000D0A0000CD
:103120000054000065730000742000004641000058
:10313000494C00000D0A000000000000526500002C
:1031400061640000790D00000A0000005049000091
:103150004E34000020000000504900004E350000B1
:1031600020000000504900004E3600002000000002
:103170000000FA005041800080007800805D290046
:10318000FFF607000000E0000C003A00004080005D
:1031900011408000809FBE00D05D2900801F780014
:1031A00000A4200021F70700E687570000A42000B4
:1031B000D10707001228EF00BE02370050418000FF
:1031C00080007800905E2900EDF607000000E00026
:1031D0000A003A00F0408000614060000080FB007F
:1031E00061006000A11680000100A10001007000D4
:1031F000A01688001228EF00AE0237005041800070
:1032000080007800105F2900DDF607000000E00074
:103210000F003A00F04080006100600000F0A7005D
:103220000000EA000000E9004F00DE0000407800E6
:103230000080FB0061006000A11680000100A10079
:1032400001007000A01688001228EF0099023700D4
:103250005041800080007800A05F2900C8F6070078
:103260000000E0000C003A00F04080000000D100B7
:10327000614060000080FB006100600000004000D1
:10328000A11680000110A10001007000A0168800A6
:103290001228EF008702370050418000800078003C
:1032A00020602900B6F607000000E00010003A0098
:1032B000F04080006200600000F0A7000000EA001B
:1032C0000000E9004F00DE00004078000080FB00B5
:1032D0006100600000004000A11680000110A10004
:1032E00001007000A01688001228EF00710237005C
:1032F0005041800080007800B0602900A0F60700EF
:103300000000E0000C003A00F04080004200DE00C7
:10331000614060000080FB00610060004200DD0051
:10332000A11680000120A10001007000A0168800F5
:103330001228EF005F0237005041800080007800C3
:10334000306129008EF607000000E00010003A000E
:10335000F04080006400600000F0A7000000EA0078
:103360000000E9004F00DE00004078000080FB0014
:10337000610060004200DD00A11680000120A10074
:1033800001007000A01688001228EF0049023700E3
:103390005041800080007800C061290078F6070065
:1033A0000000E00006003A00D082A8000000000003
:1033B000CD82A800000000001228EF003D02370077
:1033C0005041800080007800406229006CF60700C0
:1033D0000000E00008003A00D082A90000000000D0
:1033E000D282A90000000000CD82A90000000000E8
:1033F0001228EF002F023700504180008000780033
:10340000D06229005EF607000000E00003003A00E9
:103410001228EF00290207002602370050418000E1
:10342000800078003063290055F607000000E000B6
:1034300004003A00CCE2A800000000001228EF00CF
:103440001C0237005041800080007800D0632900C2
:103450004BF607000000E00004003A00CCE2A900AF
:10346000000000001228EF001202370050418000D7
:10347000800078008064290041F607000000E00029
:1034800004003A00CC82A800000000001228EF00DF
:103490000802370050418000800078001065290044
:1034A00037F607000000E00004003A00CC82A900D3
:1034B000000000001228EF00FE013700504180009C
:1034C00080007800B06529002DF607000000E000BC
:1034D00007003A001CC8A800200D80006000B3005F
:1034E000200D88009500A8001228EF00F101370098
:1034F00050418000800078008066290020F6070097
:103500000000E00008003A001CC8A900210D80005E
:1035100080FF2F0000806000200D88009500A9002A
:103520001228EF00E301370050418000800078004E
:103530006067290012F607000000E00003003A006F
:10354000CC62A9001228EF00DA0137005041800058
:1035500080007800E067290009F607000000E0001D
:1035600003003A00CC62A8001228EF00D101370016
:1035700050418000800078007068290000F6070044
:103580000000E00005003A00CDE2A90000000000C4
:10359000CDC2A8001228EF00C601370050418000BC
:1035A00080007800B0682900F5F507000000E00011
:1035B00005003A00CDC2A90000000000CDE2A8003D
:1035C0001228EF00BB0137005041800080007800D6
:1035D00010692900EAF507000000E00003003A0046
:1035E0001DA8A8001228EF00B2013700504180004A
:1035F0008000780070692900E1F507000000E00014
:1036000006003A001DA8A900CDC2A90000000000D4
:10361000CDE2A9001228EF00A6013700504180003A
:1036200062002000E1692900E5F507000000E000E4
:1036300025003A00209020009040780010C3B3008D
:1036400080CF50000500320020902000904078008C
:1036500000C3B30080CF500019003A002090200032
:10366000104078008040780000CDB30000C04000DA
:10367000614060000080FB0061006000F14080005C
:103680000100A10001007000F0408800F0408000BF
:103690006100600000F0A7000000EA000000E900FF
:1036A0004F00DE00004078000080FB0061006000F9
:1036B000A11680000100A10001007000A016880082
:1036C0001228EF007B01370050418000620020008B
:1036D000516A2900BAF507000000E00027003A000F
:1036E000209020009040780010C3B30080CF50009D
:1036F00005003200209020009040780000C3B30005
:1037000080CF50001B003A0020902000104078002D
:103710008040780000CDB30000C0400061406000F0
:103720000080FB006100600000004000F14080006C
:103730000110A10001007000F0408800F0408000FE
:103740006200600000F0A7000000EA000000E9004D
:103750004F00DE00004078000080FB006100600048
:1037600000004000A11680000110A10001007000BF
:10377000A01688001228EF004E013700504180004B
:1037800062002000C16A29008DF507000000E000FA
:1037900027003A00209020009040780010C3B3002A
:1037A00080CF50000500320020902000904078002B
:1037B00000C3B30080CF50001B003A0020902000CF
:1037C000104078008040780000CDB30000C0400079
:1037D000614060000080FB00610060004200DD008D
:1037E000F14080000120A10001007000F04088003D
:1037F000F04080006400600000F0A7000000EA00D4
:103800000000E9004F00DE00004078000080FB006F
:10381000610060004200DD00A11680000120A100CF
:1038200001007000A01688001228EF002101370067
:103830005041800080007800306B290050F507006F
:103840000000E0000D003A006240A8001003800074
:103850004200DE00614060000080FB00610060000B
:103860004400DD00F14080000140A1000100700033
:10387000F04088001228EF000E0137005041800010
:1038800080007800B06B29003DF507000000E000E3
:103890000D003A006240A900100380004200DE00E3
:1038A000614060000080FB00610060004400DD00BA
:1038B000F14080000140A10001007000F04088004C
:1038C0001228EF00FB003700504180008000780094
:1038D000406C29002AF507000000E0000D003A00C6
:1038E0006220A800100380000000D1006140600049
:1038F0000080FB00610060004500DD00F1408000B9
:103900000150A10001007000F04088001228EF0073
:10391000E80037005041800080007800C06C29002A
:1039200017F507000000E0000D003A006220A90032
:10393000100380000000D100614060000080FB00A7
:10394000610060004500DD00F14080000150A100F1
:1039500001007000F04088001228EF00D500370009
:103960005041800080007800506D290004F5070068
:103970000000E0000D003A006280A8001003800003
:103980004400DE00614060000080FB0061006000D8
:103990004600DD00F14080000160A10001007000E0
:1039A000F04088001228EF00C2003700504180002C
:1039B00080007800D06D2900F1F407000000E000DD
:1039C0000D003A006280A900100380004400DE0070
:1039D000614060000080FB00610060004600DD0087
:1039E000F14080000160A10001007000F0408800FB
:1039F0001228EF00AF0037005041800080007800AF
:103A0000606E2900DEF407000000E0000D003A00BF
:103A10009680A800B00480004400DE006140600091
:103A20000080FB00610060004700DD00F140800085
:103A30000170A10001007000F04088001228EF0022
:103A40009C0037005041800080007800C06E290043
:103A5000CBF407000000E0000D003A009680A900BA
:103A6000B00480004400DE00614060000080FB0084
:103A7000610060004700DD00F14080000170A1009E
:103A800001007000F04088001228EF008900370024
:103A90005041800080007800306F2900B8F40700A2
:103AA0000000E0000D003A001D28A900E040800061
:103AB0004800DE00614060000080FB0061006000A3
:103AC0004E00DD006116800001E0A10001007000E1
:103AD000601688001228EF00760037005041800001
:103AE00080007800906F2900A5F407000000E00036
:103AF00006003A000621EF0011E1A8001228EF00AD
:103B0000E0012000A04088006A003700504180009A
:103B1000800078000070290099F407000000E000A0
:103B200004003A000621EF0011E1A9001228EF007D
:103B300060003700504180008000780080702900CC
:103B40008FF407000000E00002003A001228EF00A6
:103B50005800370050418000800078000071290033
:103B600087F407000000E00002003A001D68A8008A
:103B700050003700504180008000780060712900BB
:103B80007FF407000000E00004003A00CD42A800E6
:103B9000000000001228EF0046003700504180006E
:103BA00080007800B071290075F407000000E00083
:103BB00004003A00CD42A900000000001228EF00E6
:103BC0003C003700504180008000780010722900CE
:103BD0006BF407000000E00004003A00CD62A8008A
:103BE000000000001228EF00320037005041800032
:103BF000800078007072290061F407000000E00086
:103C000004003A00CD62A900000000001228EF0075
:103C1000280037005041800080007800E0722900C1
:103C200057F407000000E00007003A009560A90083
:103C30000621EF0011E1A9001228EF0000A4040002
:103C4000000000001B003700504180008000780019
:103C5000307329004AF407000000E00008003A0031
:103C6000CD62A80000000000400620007C02070092
:103C7000CD62A900000000001228EF000D003700FF
:103C80005041800080007800B07329003CF40700A8
:103C90000000E00007003A00CD62A800000000002C
:103CA000800C20006E020700CD62A9000000000019
:103CB0001228EF000080FA00000006000000FA0061
:103CC000307429000C050700E1408000002020002E
:103CD000008060000000E00004003A005016800000
:103CE000640060000000E00002003A0010002000C4
:103CF000010037000000EB00004078006B00070077
:103D00000A050700D0C0B300080507000040800086
:103D100011408000809FBE00D05D2900801F780088
:103D200000A4200041F40700E687570000A420000B
:103D3000F1040700F0408000700060000000E00027
:103D40000E003200A0742900EB04070091168000D9
:103D5000000420000080600000F0A7000000EA00DE
:103D60000000E9004F00DE00004078004F0007002F
:103D7000EE040700D0C0B300EC040700F14080005F
:103D800000022000008060000000E0000E00320011
:103D900000752900D8040700911680000008200053
:103DA0000080600000F0A7000000EA000000E900C9
:103DB0004F00DE00004078003C000700DB040700F5
:103DC000D0C0B300D9040700F140800000042000F7
:103DD000008060000000E0000E00320060752900E5
:103DE000C5040700911680000010200000806000CC
:103DF00000F0A7000000EA000000E9004F00DE002C
:103E00000040780029000700C8040700D0C0B300B4
:103E1000C6040700911680000002200000806000A8
:103E20000000E00008003A00611680000008200051
:103E3000008060000000E00003003200C07529002F
:103E4000AD04070002003700C0762900AA0407006D
:103E500090168000700060000000E0000300320057
:103E6000D0772900A404070002003700B0782900A9
:103E7000A1040700A07929009F040700407A2900C7
:103E80009D040700E04080004A00DE0061406000C1
:103E900006000700A5040700D0C0B300A304070074
:103EA0001D48A9000080FA00000006000400FA0086
:103EB000204798002E4090006F4F60001E40780011
:103EC000E94F50000200340070C3B3000100370016
:103ED00000C3B3009E40780001404000004F7800CE
:103EE0001E4078000080FA00000006000000FA0082
:103EF000881F7800850307009560A9001C28A8008A
:103F00001D68A90030030700204088003140880068
:103F100080382100D20107002B03070000408800F1
:103F2000114088000040800011408000204088003F
:103F3000314088001C08A800F01F2000F0408800D5
:103F400090168000604088008680A9009680A800B6
:103F5000CC62A8001CC8A900E04080004600DE003A
:103F6000614060000080FB00610060004500DD00F2
:103F7000E14080000150A10001007000E040880095
:103F8000918020009140780032C8BF0080CF50005F
:103F900027003100514180006041800010417800CD
:103FA000824878000000E8006041880009C8BF002E
:103FB0000040E80009E8B700514180001140780056
:103FC000D0C0B2000080FB000000E9004F00DE001E
:103FD000004078008100E800514188000004E000C2
:103FE00013003200504180000000E9008040EB00E7
:103FF00001487800C08F2000504188005CFC070019
:10400000918020009140780032C8BF0080CF5000DE
:1040100007003A000968EF0009C8BF0032E8B7009E
:104020004083200060418800C08F200050418800FC
:10403000E0408000610060000000E0007900320094
:10404000E102070000408800114088000040800025
:104050001140800018C0B30002002000031F2C0094
:1040600061F207000000E00001003C000044EB00AA
:104070000804E00057003200E04080006200600069
:104080000000E0005300320000408000114080003A
:1040900018C0B3006011B80053F207000000E00040
:1040A00001003C000044EB000804E0002200320064
:1040B000004080001140800018C0B30002002000C2
:1040C0000317240046F207000000E000010035005D
:1040D0000044EB000804E0001700320004408000B8
:1040E0001540800020408000314080000001BE006B
:1040F0000400BE00DCF1070018C0B300020020007D
:10410000030A240036F207000000E0000100350039
:104110000044EB000804E00007003200CDE2A800F4
:1041200000000000CDC2A80000000000CCE2A80002
:104130000000000027003700CCE2A90000000000CA
:10414000D522A800000000001C28A9001068EF007C
:104150000800370010C8BF000080FB00418320002A
:104160000041EB008270780010C8BF000040E800FA
:1041700010E8B700018120009140780070CCB300B6
:1041800080CF5000F3FF36000968EF0009C8BF0078
:1041900032E8B7004083200060418800C08F2000D3
:1041A000504188009560A800E0892900D2030700EB
:1041B0009660A800C0122000A04088000621EF00F1
:1041C00011E1A8001228EF00CDE2A90000000000D4
:1041D000CDC2A800004080001140800018C0B3008C
:1041E00002002000031F2C00FDF107000000E0008A
:1041F000010035000044EB000804E0000800320034
:10420000D522A90000000000D082A9000000000013
:10421000D282A90000000000CD82A90000000000A9
:104220001C08A900E0408000640060000000E0007D
:104230003100320050168000640060000000E00091
:1042400006003A00400620000501070008C8BF002C
:104250000040E80008E8B700050037001C48A90046
:10426000E04080004200DE006140600008E8B700E6
:1042700008C8BF00E24F50001F003A00E140800034
:1042800000082000008060000000E0000A003A0002
:10429000601680004E00DE00614060000080FB0080
:1042A000610060004800DD00E14080000180A10065
:1042B00001007000E04088001D28A800E040800058
:1042C0004900DE00614060000080FB00610060008A
:1042D0004700DD00E14080000170A1000100700096
:1042E000E04088001C48A900E04080004200DE0059
:1042F0006140600008E8B70091408000A040800065
:10430000808F500005003A00CDC2A8009660A90039
:104310009560A900D522A90000000000A0408000FF
:10432000EA00400090408000808F500007003A0073
:10433000D522A80000000000C0122000A040880084
:104340001228EF009560A8009660A800E040800069
:10435000680060000000E0005200320060042000AD
:10436000BF00070090168000704088006140800008
:1043700070408000008068006040880061408000DC
:1043800000042000008060000000E0001200320005
:10439000F0408000700060000000E0000E0032007D
:1043A000608A290054030700911680000004200051
:1043B0000080600000F0A7000000EA000000E900B3
:1043C0004F00DE0000407800B8FE070057030700EA
:1043D000D0C0B300550307006140800000082000F2
:1043E000008060000000E00013003200F140800017
:1043F00000022000008060000000E0000E0032009B
:10440000C08A29003C0307009116800000082000A4
:104410000080600000F0A7000000EA000000E90052
:104420004F00DE0000407800A0FE07003F030700B9
:10443000D0C0B3003D0307006140800000102000A1
:10444000008060000000E00013003200F1408000B6
:1044500000042000008060000000E0000E00320038
:10446000208B2900240307009116800000102000F3
:104470000080600000F0A7000000EA000000E900F2
:104480004F00DE000040780088FE07002703070089
:10449000D0C0B30025030700704080006040880052
:1044A0001C68A900C0408000E20F500015003600D3
:1044B000E140800000002200008060000000E00079
:1044C0000F003200611680000000240000806000B0
:1044D00000F0A7000000EA000000E9004F00DE0045
:1044E000004078000080FB00610060004E00DD00AD
:1044F0006116800001E0A1000100700060168800D4
:104500001828EF00D0408000E40F5000390036003A
:10451000E140800000082000008060000000E00012
:104520001800320023C8BF000040E80023E8B700AD
:1045300061168000000024000080600000F0A700E9
:104540000000EA000000E9004F00DE0000407800B3
:104550000080FB00610060004E00DD0061168000FD
:1045600001E0A100010070006016880023C8BF00B0
:10457000F34F5000030034001CE8A9002368EF004B
:10458000CDC2A800E14080000080200000806000D3
:104590000000E0000C00320024C8BF000040E8002A
:1045A00024E8B700418220009140780070C2B30037
:1045B00080CF500004003400D222EF00901680001B
:1045C000501688000000FE0022C8BF000040E8002E
:1045D00022E8B700218220009140780080C7B30014
:1045E00080CF500002003A002268EF001C08A800AB
:1045F0001A28EF0090168000680060000000E000BC
:1046000006003200504080000000E8005040880062
:10461000100020001200070059FE370051408000B2
:1046200080382100808F5000020034001D48A8000F
:10463000090037005140800040062000808F500064
:10464000050034005140800070382100808F5000F8
:1046500001003C00100007000A28EF0048FE370068
:104660000200FA00000F78001628EF001421EF0076
:104670009760A8001FE1A80000000000B040800083
:104680009E0F5000FDFF39009760A9001FE1A900AF
:104690000080FA00000006000400FA001CA8A80030
:1046A000F01F2000F04088000000EB001007980089
:1046B000CDE2A900601680004F00DE0000407800C7
:1046C0000080FB00610060004E00DD00611680008C
:1046D00001E0A1000100700060168800D082A900EE
:1046E00000000000D282A90000000000CD82A900D5
:1046F00000000000D522A90000000000401F20009B
:10470000D7FF070011E1A9009660A900E07A29000F
:1047100079020700807B290077020700911680004C
:10472000001E2000808F500009003A001E009000FB
:104730000000A000100798001E009000000040003C
:1047400010079800B07B29006B02070005003700B6
:104750001E0090000000400010079800B07C290067
:1047600065020700000000001E009000E10F5000ED
:104770001D003600F0408000614060000080FB00BA
:1047800061006000A11680000100A100010070001E
:10479000A0168800800C2000B1FF07009116800051
:1047A000101A2000808F500009003A001E0090006F
:1047B0000000A000100798001E00900000004000BC
:1047C00010079800E07D29004B0207000500370024
:1047D0001E0090000000400010079800E07E2900B5
:1047E00045020700000000001E009000E10F50008D
:1047F0001F003600F04080000000D10061406000E2
:104800000080FB006100600000004000A1168000F5
:104810000110A10001007000A0168800800C20008B
:104820008FFF07009116800030122000808F50000B
:1048300009003A001E0090000000A0001007980038
:104840001E00900000004000100798001080290012
:1048500029020700050037001E00900000004000FC
:1048600010079800208129002302070000000000A3
:104870001E009000E10F50001F003600F040800045
:104880004200DE00614060000080FB0061006000CB
:104890004200DD00A11680000120A100010070008F
:1048A000A0168800800C20006DFF07009116800084
:1048B00070022000808F500009003A001E00900016
:1048C0000000A000100798001E00900000004000AB
:1048D00010079800608229000702070005003700D2
:1048E0001E0090000000400010079800408329003F
:1048F0000102070000000000D082A80000000000B4
:10490000CD82A80000000000800C200054FF0700AA
:1049100090168000700060000000E0000900320086
:104920001E0090000000A000100798001E009000DC
:10493000000040001007980050842900EE01070095
:10494000050037001E00900000004000100798008E
:1049500050852900E801070000000000D522A800CA
:1049600000000000CB0007000004E0000600320059
:104970001E0090000000E9001007980080862900C2
:10498000DD0107000200370080872900DA010700F7
:104990009E009000E0032000808F500006003A0047
:1049A000CDC2A80000000000CDE2A8005088290078
:1049B000D10107000200370010892900CE0107004D
:1049C000800C80006000B300800C8800200D800007
:1049D0006000B300200D88009500A800010037009A
:1049E0000000000090168000680060000000E000F9
:1049F0000C0032001E0FE8001000200018FF070016
:104A0000401F20009E007800808F5000F4FF3A0085
:104A1000D222EF0090168000501688000000FE00A1
:104A2000F0FF37000000EB00000F7800EDFF3700CB
:104A30000000FA00C9A2A900CBA2A900007D2000B5
:104A400001002000C5010700C9A2A8008075200050
:104A500001002000C10107000080FA0000000600EC
:104A60000000FA00C9A2A900CBA2A9000000000022
:104A700000000000C9A2A800800220000100200060
:104A8000B60107005116800000002200008060007F
:104A90000000E00002003A002E68EF00020037003C
:104AA00010C0B3002EE8B700000C20000100200069
:104AB000AA0107000080FA00000006000000FA00CA
:104AC000C9A2A900CBA2A9000000000000000000BC
:104AD0002EC8BF00E14F500001003A00C9A2A80053
:104AE000800E2000010020009C010700C9A2A80040
:104AF0000080FA00000006000000FA002F68EF00B6
:104B00003068EF000F003700D5FF07002EC8BF0048
:104B1000E14F500008003A0030C8BF000080FB00A1
:104B2000110020000008DD00804078002FC8BF0081
:104B300000C070002FE8B70030C8BF000040E80098
:104B400030E8B70030C8BF00E74F5000EEFF360036
:104B50002FC8BF000080FA00000006000400FA0021
:104B6000204798003068EF000F0037002E4090007B
:104B70008080FB0030C8BF000080FB000088DE00A2
:104B8000004F78009E40780061CF60009E40780022
:104B9000E282200001497800C8FF070030C8BF004A
:104BA0000040E80030E8B70030C8BF00E74F5000D1
:104BB000EEFF3600400620000100200067010700DC
:104BC0000080FA00000006000400FA0098FF0700C9
:104BD000C0CCB300E1FF070040C4B300DFFF070013
:104BE00000000000511680000000220000806000DC
:104BF0000000E000FBFF32008DFF0700C0CCB300D7
:104C0000D6FF0700E0CBB300D4FF0700BAFF0700D0
:104C100061A3200080487800B7FF070071A320003F
:104C20008048780070A32000104078000004E00065
:104C30000C00320060A320001040780000C0EA00A1
:104C40000080FB0061001000CF80DE0068EF0700ED
:104C50000200200003F02300A6EF0700008FBE0033
:104C60000900370060A32000104078000080FB009E
:104C7000CF80DE005EEF07000200200003F023007B
:104C80009CEF0700008FBE001E00BE000080FA00EF
:104C9000000006000200FA000040EB00004F780020
:104CA0005116800000002200008060000000E0003B
:104CB00001003A001E4FE800C9A2A900CBA2A9003A
:104CC000007D20000100200024010700C9A2A800E7
:104CD000001920000100200020010700511680006B
:104CE00000002200008060000000E00001003200AF
:104CF0001E4FE800805C2000010020001701070023
:104D00001E4078000080FA00000006000000FA0053
:104D10000080EB0060198800C022EF000000000056
:104D2000402420004016880000000000801F200062
:104D30008016880000000000D082A900000000005A
:104D4000D282A90000000000CD82A900000000006E
:104D500000000000CCE2A900000000002135800026
:104D600000FE2F00008060006000B3002035880046
:104D700021368000F00F2E0080806000003020007F
:104D800001007000203688003135800000FE2F00C1
:104D9000008060009000B30030358800413680000C
:104DA00000FE2F00008060005000B30040368800F5
:104DB00031368000F00F2E0080806000002021003E
:104DC00001007000303688002136800000FE2F0080
:104DD000008060004001B30020368800013480006C
:104DE000F00F2E00008060000090A00000348800CA
:104DF00005E1A800210880000003200001007000E8
:104E000020088800A06120001008880011E1A90096
:104E100081088000000320000100700080088800E5
:104E200090D023006008880013E1A800910880005A
:104E3000F0FC2F00008060000050A0009008880067
:104E4000401F2000700888001FE1A900F1088000C1
:104E5000F0FC2F00008060000040A000F0088800F7
:104E6000401F2000D008880020032000B00C8800DC
:104E700040062000A00C8800900C8000F001B300D8
:104E8000900C880092E1A900810C8000F03F2E0078
:104E90000080600000A0A000800C8800810C8000D1
:104EA00080FF2F00008060006000B300800C88004D
:104EB000810C800080FF2F0000806000800C880043
:104EC00020032000500D880040062000400D88007F
:104ED000300D8000F001B300300D8800A6E1A9007C
:104EE000210D8000F03F2E000080600000A0A00097
:104EF000200D8800210D800080FF2F0000806000C1
:104F00006000B300200D8800210D800080FF2F007D
:104F100000806000200D88006A20A8006A40A80078
:104F20006A80A80068C0A8009460A80094E0A80067
:104F30009500A9009760A8009680A9008220A8008B
:104F40009660A9006220A8006240A8006280A800C4
:104F5000CCA2A8002062A8002082A9000111800034
:104F6000F0CF2F0000806000001188002002A9000F
:104F70000111800090FF2F00008060000011880068
:104F800000118000680060000000E00003003200B3
:104F9000000120004011880002003700300020008E
:104FA0004011880021E2A8002342A8000080FA00F6
:104FB0000000060034080000C800000000000000E7
:104FC0003208000002000000000000002608000077
:104FD00004000000020000000100010000000000C9
:104FE000FC080000C80000000000000000080000ED
:104FF00026000000000000002A0800000400000055
:1050000002000000FC08340008000000360A00001E
:105010000A000000000000002E080000040000004C
:1050200000000000400A00000A000000000000002C
:105030001C0A00001A00000002000000686A6C00F0
:10504000747A4C0000000100000200000400080017
:1050500000100000000020002B2D23003000000075
:10506000C409000058000000020000006E616E00DC
:10507000004E41004E0069006E660000494E460039
:1050800000000000000000000024400000000000BC
:105090000000000059400000000000000088C3002C
:1050A0004000000000008400D79741000080E0002D
:1050B0003779C300414317006E05B500B5B89300BA
:1050C00046F5F9003FE903004F384D00321D30002E
:1050D000F9487700825A3C00BF737F00DD4F15000E
:1050E000750000004A0A00000200000002000000F3
:1050F00030000000000000000200FA00000F7800FD
:10510000040037001E007800104078001E0FE800F1
:10511000060007001E007800104078000004E00040
:10512000F8FF3A000080FA00000006000200FA00D2
:10513000004F78001E00FB002011880000000000D6
:105140001111800000102000008060000000E000CD
:10515000FBFF32000080FA0000000600F03FB100C3
:105160000180B10006003500EE03090000000000D8
:10517000403FB1000180B100FBFF3D001000B000D6
:10518000203FB00002003500008009000000000050
:1051900000000600FFFFFF00FFFFFF00FFFFFF0012
:1051A000FFFFFF00FFFFFF00FFFFFF00FFFFFF000B
:1051B000FFFFFF00FFFFFF00FFFFFF00FFFFFF00FB
:1051C000FFFFFF00FFFFFF00FFFFFF00FFFFFF00EB
:1051D000FFFFFF00FFFFFF00FFFFFF00FFFFFF00DB
:020000040001F9
:1047F000FFFFFF00FFFFFF000002040000000000B9
:104800000F8D2000F0FF2F00601988004024200049
:1048100040168800CDC2A9000000FF00A406A90030
:10482000A426A800A446A800A466A900A486A900FE
:10483000C506A800C526A800C546A900C566A900EA
:10484000C586A9000006EB0081000700A300200038
:10485000BA0220008A000700100CB10003003200E9
:104860008301E90076003200F9FF3700A00720003D
:104870008E000700400020008C0007003008200058
:104880008A000700B0042000880007000007EB0042
:104890007A000700900188007800070003E1B70064
:1048A0007600070002E1B7000281BF0080027800B5
:1048B0000002780071000700800678006F00070092
:1048C0008001780000047800028020006B0007005F
:1048D000005978008301E900FCFF3A000E04E00073
:1048E00003003200E004200070000700E7FF3700FB
:1048F0000D10A6000F0037003200E2000D003A0054
:104900000201E2000B003A000280200040C0B30028
:104910000059780000C0B3000059780040CAB300C5
:10492000005978000059EB0000C0B300005978002E
:104930000059EB00028020000D00A70005003700A1
:104940000D10A70005003700500520005700070094
:10495000CEFF3700FCFF2F00CAFF37009101800017
:104960000500780008082000110009004888D800D8
:10497000881420000800E10006003300F81420002D
:104980000040E1000300330000052000470007005D
:10499000BEFF3700050278000C00A60004003700B7
:1049A000850ABB00200424001A0007000006EB0063
:1049B00003042000B2CABB00B25ABB00B25ABB000B
:1049C0008301E900FBFF3A001000240011000700FA
:1049D000030420000280200014C0BA003204E10069
:1049E00009003A003440BA003204E10006003A00FF
:1049F0003440BA003204E10003003A008301E900C8
:104A0000F5FF3A009FFF37006005200027000700F0
:104A10009EFF3700003B880050052000303B880097
:104A2000A00A2000303B880061E7A80000000000D9
:104A30000000000061E7AF00FEFF37000000060045
:104A40000F8D2000080007000221EF006AFF3700E9
:104A50002062A800000120004011880021E2A80087
:104A60002342A800000006008560A9008580A900F7
:104A70002022EF002222EF0000000600BA022000F0
:104A80008005EB002202AE000300370030118000E9
:104A900000074700000006008B05E900F9FF3A0017
:104AA0000A05E900F6FF3A00E5FF37002322AF00D0
:104AB000FEFF370024A2B700000006000008000037
:104AC000D00000000000000000000000FFFFFF0019
:104AD000FFFFFF00FFFFFF00FFFFFF00FFFFFF00E2
:104AE000FFFFFF00FFFFFF00FFFFFF00FFFFFF00D2
:104AF000FFFFFF00FFFFFF00FFFFFF00FFFFFF00C2
:104B0000FFFFFF00FFFFFF00FFFFFF00FFFFFF00B1
:1057F0007FFF0000FFFC0000AE7A00007F3F00004A
:00000001FF
